{
  "contractName": "Queueing",
  "abi": [
    {
      "constant": true,
      "inputs": [
        {
          "name": "",
          "type": "address"
        }
      ],
      "name": "people",
      "outputs": [
        {
          "name": "personAddress",
          "type": "address"
        },
        {
          "name": "startTime",
          "type": "uint256"
        }
      ],
      "payable": false,
      "stateMutability": "view",
      "type": "function"
    },
    {
      "constant": true,
      "inputs": [
        {
          "name": "",
          "type": "uint256"
        }
      ],
      "name": "dequeueTime",
      "outputs": [
        {
          "name": "",
          "type": "uint256"
        }
      ],
      "payable": false,
      "stateMutability": "view",
      "type": "function"
    },
    {
      "constant": false,
      "inputs": [],
      "name": "queue",
      "outputs": [
        {
          "name": "",
          "type": "uint256"
        }
      ],
      "payable": false,
      "stateMutability": "nonpayable",
      "type": "function"
    }
  ],
  "bytecode": "0x606060405260008055341561001357600080fd5b61026f806100226000396000f300606060405260043610610057576000357c0100000000000000000000000000000000000000000000000000000000900463ffffffff16806307de97351461005c5780638c9898f8146100dc578063e10d29ee14610113575b600080fd5b341561006757600080fd5b610093600480803573ffffffffffffffffffffffffffffffffffffffff1690602001909190505061013c565b604051808373ffffffffffffffffffffffffffffffffffffffff1673ffffffffffffffffffffffffffffffffffffffff1681526020018281526020019250505060405180910390f35b34156100e757600080fd5b6100fd6004808035906020019091905050610180565b6040518082815260200191505060405180910390f35b341561011e57600080fd5b61012661019a565b6040518082815260200191505060405180910390f35b60016020528060005260406000206000915090508060000160009054906101000a900473ffffffffffffffffffffffffffffffffffffffff16908060010154905082565b60028160148110151561018f57fe5b016000915090505481565b600080600160003373ffffffffffffffffffffffffffffffffffffffff1673ffffffffffffffffffffffffffffffffffffffff1681526020019081526020016000209050338160000160006101000a81548173ffffffffffffffffffffffffffffffffffffffff021916908373ffffffffffffffffffffffffffffffffffffffff16021790555042816001018190555060016000808282540192505081905550600054915050905600a165627a7a72305820a8021a91aa047531578ef2e007e00efcf16ffd60b020f26c447b40697e2c96050029",
  "source": "pragma solidity ^0.4.17;\n\ncontract Queueing {\n\n\tstruct Person {\n\t\taddress personAddress;\n\t\tuint startTime;\n    }\n\n    uint numberInQueue = 0;\n\tmapping (address => Person) public people;\n\tuint[20] public dequeueTime;\n\n\tfunction queue() public returns (uint) {\n\t\tvar person = people[msg.sender];\n\t\tperson.personAddress = msg.sender;\n\t\tperson.startTime = block.timestamp;\n\t\tnumberInQueue += 1;\n\t\treturn numberInQueue;\n\t}\n\n\t// Retrieving the adopters\n\t//function deQueue() public returns (uint) {\n\t//\tperson = people[msg.sender]\n\t//\tvar endTime = block.timestamp - blockStartTime;\n\t//\treturn endTime - person.startTime;\n\t//}\n}",
  "sourcePath": "/Users/Nick/Projects/etherium-queueing/contracts/Queueing.sol",
  "compiler": {
    "name": "solc",
    "version": "0.4.18+commit.9cf6e910.Emscripten.clang"
  },
  "schemaVersion": "1.0.1",
  "updatedAt": "2018-01-28T21:04:05.825Z"
}